{
  "_format": "hh-sol-artifact-1",
  "contractName": "chai",
  "sourceName": "contracts/chai.sol",
  "abi": [
    {
      "inputs": [],
      "stateMutability": "nonpayable",
      "type": "constructor"
    },
    {
      "inputs": [
        {
          "internalType": "string",
          "name": "name",
          "type": "string"
        },
        {
          "internalType": "string",
          "name": "message",
          "type": "string"
        },
        {
          "internalType": "string",
          "name": "url",
          "type": "string"
        }
      ],
      "name": "buyChai",
      "outputs": [],
      "stateMutability": "payable",
      "type": "function"
    },
    {
      "inputs": [],
      "name": "getMemose",
      "outputs": [
        {
          "components": [
            {
              "internalType": "string",
              "name": "name",
              "type": "string"
            },
            {
              "internalType": "string",
              "name": "message",
              "type": "string"
            },
            {
              "internalType": "string",
              "name": "url",
              "type": "string"
            },
            {
              "internalType": "uint256",
              "name": "timestamp",
              "type": "uint256"
            },
            {
              "internalType": "address",
              "name": "from",
              "type": "address"
            },
            {
              "internalType": "uint256",
              "name": "value",
              "type": "uint256"
            }
          ],
          "internalType": "struct chai.Memo[]",
          "name": "",
          "type": "tuple[]"
        }
      ],
      "stateMutability": "view",
      "type": "function"
    }
  ],
  "bytecode": "0x608060405234801561001057600080fd5b5033600160006101000a81548173ffffffffffffffffffffffffffffffffffffffff021916908373ffffffffffffffffffffffffffffffffffffffff160217905550610cc9806100616000396000f3fe6080604052600436106100295760003560e01c80633b2f20d31461002e578063e2ede73d14610059575b600080fd5b34801561003a57600080fd5b50610043610075565b60405161005091906107c4565b60405180910390f35b610073600480360381019061006e9190610855565b6102f4565b005b60606000805480602002602001604051908101604052809291908181526020016000905b828210156102eb57838290600052602060002090600602016040518060c00160405290816000820180546100cc90610938565b80601f01602080910402602001604051908101604052809291908181526020018280546100f890610938565b80156101455780601f1061011a57610100808354040283529160200191610145565b820191906000526020600020905b81548152906001019060200180831161012857829003601f168201915b5050505050815260200160018201805461015e90610938565b80601f016020809104026020016040519081016040528092919081815260200182805461018a90610938565b80156101d75780601f106101ac576101008083540402835291602001916101d7565b820191906000526020600020905b8154815290600101906020018083116101ba57829003601f168201915b505050505081526020016002820180546101f090610938565b80601f016020809104026020016040519081016040528092919081815260200182805461021c90610938565b80156102695780601f1061023e57610100808354040283529160200191610269565b820191906000526020600020905b81548152906001019060200180831161024c57829003601f168201915b50505050508152602001600382015481526020016004820160009054906101000a900473ffffffffffffffffffffffffffffffffffffffff1673ffffffffffffffffffffffffffffffffffffffff1673ffffffffffffffffffffffffffffffffffffffff16815260200160058201548152505081526020019060010190610099565b50505050905090565b60003411610337576040517f08c379a000000000000000000000000000000000000000000000000000000000815260040161032e906109c6565b60405180910390fd5b600160009054906101000a900473ffffffffffffffffffffffffffffffffffffffff1673ffffffffffffffffffffffffffffffffffffffff166108fc349081150290604051600060405180830381858888f1935050505015801561039f573d6000803e3d6000fd5b5060006040518060c0016040528088888080601f016020809104026020016040519081016040528093929190818152602001838380828437600081840152601f19601f82011690508083019250505050505050815260200186868080601f016020809104026020016040519081016040528093929190818152602001838380828437600081840152601f19601f82011690508083019250505050505050815260200184848080601f016020809104026020016040519081016040528093929190818152602001838380828437600081840152601f19601f8201169050808301925050505050505081526020014281526020013373ffffffffffffffffffffffffffffffffffffffff16815260200134815250908060018154018082558091505060019003906000526020600020906006020160009091909190915060008201518160000190816104ef9190610bc1565b5060208201518160010190816105059190610bc1565b50604082015181600201908161051b9190610bc1565b506060820151816003015560808201518160040160006101000a81548173ffffffffffffffffffffffffffffffffffffffff021916908373ffffffffffffffffffffffffffffffffffffffff16021790555060a082015181600501555050505050505050565b600081519050919050565b600082825260208201905092915050565b6000819050602082019050919050565b600081519050919050565b600082825260208201905092915050565b60005b838110156105e75780820151818401526020810190506105cc565b60008484015250505050565b6000601f19601f8301169050919050565b600061060f826105ad565b61061981856105b8565b93506106298185602086016105c9565b610632816105f3565b840191505092915050565b6000819050919050565b6106508161063d565b82525050565b600073ffffffffffffffffffffffffffffffffffffffff82169050919050565b600061068182610656565b9050919050565b61069181610676565b82525050565b600060c08301600083015184820360008601526106b48282610604565b915050602083015184820360208601526106ce8282610604565b915050604083015184820360408601526106e88282610604565b91505060608301516106fd6060860182610647565b5060808301516107106080860182610688565b5060a083015161072360a0860182610647565b508091505092915050565b600061073a8383610697565b905092915050565b6000602082019050919050565b600061075a82610581565b610764818561058c565b9350836020820285016107768561059d565b8060005b858110156107b25784840389528151610793858261072e565b945061079e83610742565b925060208a0199505060018101905061077a565b50829750879550505050505092915050565b600060208201905081810360008301526107de818461074f565b905092915050565b600080fd5b600080fd5b600080fd5b600080fd5b600080fd5b60008083601f840112610815576108146107f0565b5b8235905067ffffffffffffffff811115610832576108316107f5565b5b60208301915083600182028301111561084e5761084d6107fa565b5b9250929050565b60008060008060008060608789031215610872576108716107e6565b5b600087013567ffffffffffffffff8111156108905761088f6107eb565b5b61089c89828a016107ff565b9650965050602087013567ffffffffffffffff8111156108bf576108be6107eb565b5b6108cb89828a016107ff565b9450945050604087013567ffffffffffffffff8111156108ee576108ed6107eb565b5b6108fa89828a016107ff565b92509250509295509295509295565b7f4e487b7100000000000000000000000000000000000000000000000000000000600052602260045260246000fd5b6000600282049050600182168061095057607f821691505b60208210810361096357610962610909565b5b50919050565b600082825260208201905092915050565b7f7468657220736f756c642062206520736f6d6520657468657200000000000000600082015250565b60006109b0601983610969565b91506109bb8261097a565b602082019050919050565b600060208201905081810360008301526109df816109a3565b9050919050565b7f4e487b7100000000000000000000000000000000000000000000000000000000600052604160045260246000fd5b60008190508160005260206000209050919050565b60006020601f8301049050919050565b600082821b905092915050565b600060088302610a777fffffffffffffffffffffffffffffffffffffffffffffffffffffffffffffffff82610a3a565b610a818683610a3a565b95508019841693508086168417925050509392505050565b6000819050919050565b6000610abe610ab9610ab48461063d565b610a99565b61063d565b9050919050565b6000819050919050565b610ad883610aa3565b610aec610ae482610ac5565b848454610a47565b825550505050565b600090565b610b01610af4565b610b0c818484610acf565b505050565b5b81811015610b3057610b25600082610af9565b600181019050610b12565b5050565b601f821115610b7557610b4681610a15565b610b4f84610a2a565b81016020851015610b5e578190505b610b72610b6a85610a2a565b830182610b11565b50505b505050565b600082821c905092915050565b6000610b9860001984600802610b7a565b1980831691505092915050565b6000610bb18383610b87565b9150826002028217905092915050565b610bca826105ad565b67ffffffffffffffff811115610be357610be26109e6565b5b610bed8254610938565b610bf8828285610b34565b600060209050601f831160018114610c2b5760008415610c19578287015190505b610c238582610ba5565b865550610c8b565b601f198416610c3986610a15565b60005b82811015610c6157848901518255600182019150602085019450602081019050610c3c565b86831015610c7e5784890151610c7a601f891682610b87565b8355505b6001600288020188555050505b50505050505056fea2646970667358221220c3bc0bca9f4a75f43ce54b7edeb7e17e8a145745d3dc920c35aa50d9833bd53d64736f6c63430008130033",
  "linkReferences": {},
  "deployedLinkReferences": {}
}